{
    "contractName": "Pool",
    "abi": [
        {
            "inputs": [
                {
                    "internalType": "address",
                    "name": "_tokenA",
                    "type": "address"
                },
                {
                    "internalType": "address",
                    "name": "_tokenB",
                    "type": "address"
                },
                {
                    "internalType": "address",
                    "name": "_lpToken",
                    "type": "address"
                }
            ],
            "stateMutability": "nonpayable",
            "type": "constructor"
        },
        {
            "anonymous": false,
            "inputs": [
                {
                    "indexed": true,
                    "internalType": "address",
                    "name": "provider",
                    "type": "address"
                },
                {
                    "indexed": false,
                    "internalType": "uint256",
                    "name": "amountA",
                    "type": "uint256"
                },
                {
                    "indexed": false,
                    "internalType": "uint256",
                    "name": "amountB",
                    "type": "uint256"
                },
                {
                    "indexed": false,
                    "internalType": "uint256",
                    "name": "lpMinted",
                    "type": "uint256"
                }
            ],
            "name": "LiquidityAdded",
            "type": "event"
        },
        {
            "anonymous": false,
            "inputs": [
                {
                    "indexed": true,
                    "internalType": "address",
                    "name": "provider",
                    "type": "address"
                },
                {
                    "indexed": false,
                    "internalType": "uint256",
                    "name": "lpBurned",
                    "type": "uint256"
                },
                {
                    "indexed": false,
                    "internalType": "uint256",
                    "name": "amountA",
                    "type": "uint256"
                },
                {
                    "indexed": false,
                    "internalType": "uint256",
                    "name": "amountB",
                    "type": "uint256"
                }
            ],
            "name": "LiquidityPulled",
            "type": "event"
        },
        {
            "anonymous": false,
            "inputs": [
                {
                    "indexed": true,
                    "internalType": "address",
                    "name": "swapper",
                    "type": "address"
                },
                {
                    "indexed": false,
                    "internalType": "address",
                    "name": "fromToken",
                    "type": "address"
                },
                {
                    "indexed": false,
                    "internalType": "uint256",
                    "name": "amountIn",
                    "type": "uint256"
                },
                {
                    "indexed": false,
                    "internalType": "address",
                    "name": "toToken",
                    "type": "address"
                },
                {
                    "indexed": false,
                    "internalType": "uint256",
                    "name": "amountOut",
                    "type": "uint256"
                }
            ],
            "name": "Swap",
            "type": "event"
        },
        {
            "inputs": [],
            "name": "FEE_RATE",
            "outputs": [
                {
                    "internalType": "uint256",
                    "name": "",
                    "type": "uint256"
                }
            ],
            "stateMutability": "view",
            "type": "function"
        },
        {
            "inputs": [
                {
                    "internalType": "uint256",
                    "name": "amountA",
                    "type": "uint256"
                },
                {
                    "internalType": "uint256",
                    "name": "amountB",
                    "type": "uint256"
                }
            ],
            "name": "addLiquidity",
            "outputs": [],
            "stateMutability": "nonpayable",
            "type": "function"
        },
        {
            "inputs": [],
            "name": "getPoolReserves",
            "outputs": [
                {
                    "internalType": "uint256",
                    "name": "reserveA",
                    "type": "uint256"
                },
                {
                    "internalType": "uint256",
                    "name": "reserveB",
                    "type": "uint256"
                }
            ],
            "stateMutability": "view",
            "type": "function"
        },
        {
            "inputs": [],
            "name": "getPoolSwapToken",
            "outputs": [
                {
                    "internalType": "address",
                    "name": "",
                    "type": "address"
                },
                {
                    "internalType": "address",
                    "name": "",
                    "type": "address"
                }
            ],
            "stateMutability": "view",
            "type": "function"
        },
        {
            "inputs": [],
            "name": "getPoolTokenAddress",
            "outputs": [
                {
                    "internalType": "address",
                    "name": "",
                    "type": "address"
                }
            ],
            "stateMutability": "view",
            "type": "function"
        },
        {
            "inputs": [
                {
                    "internalType": "address",
                    "name": "user",
                    "type": "address"
                }
            ],
            "name": "getPoolTokenShare",
            "outputs": [
                {
                    "internalType": "uint256",
                    "name": "",
                    "type": "uint256"
                }
            ],
            "stateMutability": "view",
            "type": "function"
        },
        {
            "inputs": [],
            "name": "getPoolTokenSupply",
            "outputs": [
                {
                    "internalType": "uint256",
                    "name": "",
                    "type": "uint256"
                }
            ],
            "stateMutability": "view",
            "type": "function"
        },
        {
            "inputs": [
                {
                    "internalType": "uint256",
                    "name": "amountA",
                    "type": "uint256"
                }
            ],
            "name": "liquidityQuote",
            "outputs": [
                {
                    "internalType": "uint256",
                    "name": "amountB",
                    "type": "uint256"
                }
            ],
            "stateMutability": "view",
            "type": "function"
        },
        {
            "inputs": [],
            "name": "lpToken",
            "outputs": [
                {
                    "internalType": "contract IAKSLPToken",
                    "name": "",
                    "type": "address"
                }
            ],
            "stateMutability": "view",
            "type": "function"
        },
        {
            "inputs": [],
            "name": "pullLiquidityAsLp",
            "outputs": [],
            "stateMutability": "nonpayable",
            "type": "function"
        },
        {
            "inputs": [
                {
                    "internalType": "address",
                    "name": "tokenIn",
                    "type": "address"
                },
                {
                    "internalType": "uint256",
                    "name": "amountIn",
                    "type": "uint256"
                }
            ],
            "name": "quoteSwap",
            "outputs": [
                {
                    "internalType": "uint256",
                    "name": "amountOut",
                    "type": "uint256"
                }
            ],
            "stateMutability": "view",
            "type": "function"
        },
        {
            "inputs": [
                {
                    "internalType": "address",
                    "name": "tokenIn",
                    "type": "address"
                },
                {
                    "internalType": "address",
                    "name": "tokenOut",
                    "type": "address"
                },
                {
                    "internalType": "uint256",
                    "name": "amountIn",
                    "type": "uint256"
                }
            ],
            "name": "swap",
            "outputs": [
                {
                    "internalType": "uint256",
                    "name": "amountOut",
                    "type": "uint256"
                }
            ],
            "stateMutability": "nonpayable",
            "type": "function"
        },
        {
            "inputs": [],
            "name": "tokenA",
            "outputs": [
                {
                    "internalType": "contract IERC20",
                    "name": "",
                    "type": "address"
                }
            ],
            "stateMutability": "view",
            "type": "function"
        },
        {
            "inputs": [],
            "name": "tokenB",
            "outputs": [
                {
                    "internalType": "contract IERC20",
                    "name": "",
                    "type": "address"
                }
            ],
            "stateMutability": "view",
            "type": "function"
        }
    ],
    "bytecode": "6080346100e657601f6116f038819003918201601f19168301916001600160401b038311848410176100ea578084926060946040528339810103126100e657610047816100fe565b61005f6040610058602085016100fe565b93016100fe565b916001600160a01b039081169116818110156100c35760018060a01b03195f5416175f5560018060a01b031960015416176001555b600280546001600160a01b0319166001600160a01b03929092169190911790556040516115dd90816101138239f35b5f80546001600160a01b0319908116909317905560018054909216179055610094565b5f80fd5b634e487b7160e01b5f52604160045260245ffd5b51906001600160a01b03821682036100e65756fe6080806040526004361015610012575f80fd5b5f905f3560e01c90816307fa901a146110eb575080630fc63d10146110c4578063194d28a61461109c5780632d11c58a146110815780634b84e8aa1461105b5780635e9c166714610cb25780635f64b55b14610c895780635fcbd28514610c6057806372e81c9a14610c2f5780639cd441da14610757578063c4bd680b146106f7578063df791e501461024a578063eb0224141461014d5763f3ef47a3146100b8575f80fd5b3461014a578060031936011261014a576002546040516318160ddd60e01b81529190602090839060049082906001600160a01b03165afa90811561013e5790610107575b602090604051908152f35b506020813d602011610136575b8161012160209383611376565b8101031261013257602090516100fc565b5f80fd5b3d9150610114565b604051903d90823e3d90fd5b80fd5b503461014a578060031936011261014a5780546040516370a0823160e01b81523060048201529190602090839060249082906001600160a01b03165afa90811561013e578091610215575b6001546040516370a0823160e01b81523060048201529350602090849060249082906001600160a01b03165afa90811561013e57906101e2575b6040809350519182526020820152f35b506020823d60201161020d575b816101fc60209383611376565b8101031261013257604091516101d2565b3d91506101ef565b90506020823d602011610242575b8161023060209383611376565b81010312610132576024915190610198565b3d9150610223565b503461014a57606036600319011261014a57610264611360565b6024356001600160a01b0381169291908390036106f3578154604435936001600160a01b039283169290911682811480806106df575b80156106c1575b1561068757156105b4576020602491604051928380926370a0823160e01b82523060048301525afa9081156105a9578491610577575b506001546040516370a0823160e01b815230600482015290602090829060249082906001600160a01b03165afa90811561056c57859161053a575b505b6040516323b872dd60e01b81523360048201523060248201526044810187905260208160648189895af190811561052f578691610510575b50156104d95761036561035e876113ac565b91826113c4565b916103e88102908082046103e814901517156104c55761038f9291610389916113d7565b906113e4565b9283156104805760405163a9059cbb60e01b81523360048201526024810185905260208160448185875af191821561013e5791610451575b5015610413576020936040519283528483015260408201528160608201527f5380cf97d8f645d3c4896da60c053458dca03a3a31cec642ac80e1ddf0d8d02a60803392a2604051908152f35b60405162461bcd60e51b815260206004820152601660248201527513dd5d1c1d5d081d1c985b9cd9995c8819985a5b195960521b6044820152606490fd5b610473915060203d602011610479575b61046b8183611376565b810190611505565b5f6103c7565b503d610461565b60405162461bcd60e51b815260206004820152601a60248201527f496e73756666696369656e74206f757470757420616d6f756e740000000000006044820152606490fd5b634e487b7160e01b86526011600452602486fd5b60405162461bcd60e51b815260206004820152600f60248201526e151c985b9cd9995c8819985a5b1959608a1b6044820152606490fd5b610529915060203d6020116104795761046b8183611376565b5f61034c565b6040513d88823e3d90fd5b90506020813d602011610564575b8161055560209383611376565b8101031261013257515f610312565b3d9150610548565b6040513d87823e3d90fd5b90506020813d6020116105a1575b8161059260209383611376565b8101031261013257515f6102d7565b3d9150610585565b6040513d86823e3d90fd5b6001546040516370a0823160e01b815230600482015290602090829060249082906001600160a01b03165afa90811561056c578591610654575b50602060249192604051928380926370a0823160e01b82523060048301525afa90811561056c578591610622575b50610314565b90506020813d60201161064c575b8161063d60209383611376565b8101031261013257515f61061c565b3d9150610630565b90506020813d60201161067f575b8161066f60209383611376565b81010312610132575160206105ee565b3d9150610662565b60405162461bcd60e51b815260206004820152601260248201527124b73b30b634b2103a37b5b2b7103830b4b960711b6044820152606490fd5b506001546001600160a01b0316841480156102a157508183146102a1565b506001546001600160a01b0316831461029a565b5080fd5b503461014a57602036600319011261014a57610711611360565b6002546040516370a0823160e01b81526001600160a01b039283166004820152929160209184916024918391165afa90811561013e579061010757602090604051908152f35b503461014a57604036600319011261014a576004356024358180151580610c26575b15610be1576002546040516318160ddd60e01b815290602090829060049082906001600160a01b03165afa90811561056c578591610baf575b5084546040516370a0823160e01b81523060048201526001600160a01b0390911692602082602481875afa918215610ba4578792610b6f575b506001546040516370a0823160e01b81523060048201529190602090839060249082906001600160a01b03165afa918215610b64578892610b30575b50821580610b28575b15610a805750505050818303610a3b5761084a82846113c4565b846003821115610a2d5750808060011c60018101809111610a1957905b8282106109fa5750505b905b6040516323b872dd60e01b815233600482015230602482015260448101859052906020908290606490829089905af1801561056c576108b99186916109db575b5061151d565b6001546040516323b872dd60e01b815233600482015230602482015260448101849052906020908290606490829089906001600160a01b03165af1801561056c5761090b9186916109bc575b50611562565b60025484906001600160a01b0316803b156106f3576040516340c10f1960e01b8152336004820152602481018490529082908290604490829084905af180156109b157610998575b50506040805193845260208401929092529082015233907f64b83944e79c3ce8d4c297411de637c3e102d064677aac0c163976ebdcd6f50e9080606081015b0390a280f35b816109a291611376565b6109ad57835f610953565b8380fd5b6040513d84823e3d90fd5b6109d5915060203d6020116104795761046b8183611376565b5f610905565b6109f4915060203d6020116104795761046b8183611376565b5f6108b3565b909150610a1082610a0b81846113e4565b6113d7565b60011c90610867565b634e487b7160e01b87526011600452602487fd5b901561087157506001610871565b60405162461bcd60e51b815260206004820152601f60248201527f496e76616c6964206f7220696e73756666696369656e7420616d6f756e7421006044820152606490fd5b82610a9383610a989398949596986113c4565b6113e4565b91610aa781610a9386856113c4565b828411610b0c5750505090610a9385610ac093956113c4565b905b816108735760405162461bcd60e51b815260206004820152601d60248201527f496e73756666696369656e74206c6971756964697479206d696e7465640000006044820152606490fd5b82969750610b229450610a9392919350966113c4565b90610ac2565b508115610830565b9091506020813d602011610b5c575b81610b4c60209383611376565b810103126101325751905f610827565b3d9150610b3f565b6040513d8a823e3d90fd5b9091506020813d602011610b9c575b81610b8b60209383611376565b8101031261013257519060246107eb565b3d9150610b7e565b6040513d89823e3d90fd5b90506020813d602011610bd9575b81610bca60209383611376565b8101031261013257515f6107b2565b3d9150610bbd565b60405162461bcd60e51b815260206004820152601e60248201527f496e76616c6964206f7220696e73756666696369656e7420616d6f756e7400006044820152606490fd5b50811515610779565b503461014a578060031936011261014a5754600154604080516001600160a01b039384168152919092166020820152f35b503461014a578060031936011261014a576002546040516001600160a01b039091168152602090f35b503461014a578060031936011261014a576001546040516001600160a01b039091168152602090f35b5034610132575f366003190112610132576002546040516370a0823160e01b8152336004820152906001600160a01b0316602082602481845afa918215610ee9575f92611027575b508115610fd1576040516318160ddd60e01b815290602082600481845afa918215610ee9575f92610f9d575b508115610f61575f546040516370a0823160e01b81523060048201529290602090849060249082906001600160a01b03165afa928315610ee9575f93610f2d575b506001546040516370a0823160e01b815230600482015290602090829060249082906001600160a01b03165afa938415610ee95785915f95610ef4575b5081610dbb84610a93610dc19695610a93956113c4565b956113c4565b90803b156101325760405163079cc67960e41b815233600482015260248101859052905f908290604490829084905af18015610ee957610ed4575b50835460405163a9059cbb60e01b815233600482015260248101849052906020908290604490829089906001600160a01b03165af1801561056c57610e479186916109db575061151d565b60015460405163a9059cbb60e01b81523360048201526024810183905292906020908490604490829089906001600160a01b03165af192831561056c577f131b6779ae5d4cb0eed76b4fa2db088dc9b258c86543af756295171f23df01dd93610eb69187916109bc5750611562565b60408051948552602085019190915283015233918060608101610992565b610ee19194505f90611376565b5f925f610dfc565b6040513d5f823e3d90fd5b92915093506020823d602011610f25575b81610f1260209383611376565b8101031261013257905192849081610da4565b3d9150610f05565b9092506020813d602011610f59575b81610f4960209383611376565b810103126101325751915f610d67565b3d9150610f3c565b60405162461bcd60e51b8152602060048201526014602482015273151bdad95b881b9bdd081b5a5b9d1959081e595d60621b6044820152606490fd5b9091506020813d602011610fc9575b81610fb960209383611376565b810103126101325751905f610d26565b3d9150610fac565b60405162461bcd60e51b815260206004820152602860248201527f546869732061646472657373206973206e6f742061206c697175696469747920604482015267383937bb34b232b960c11b6064820152608490fd5b9091506020813d602011611053575b8161104360209383611376565b810103126101325751905f610cfa565b3d9150611036565b34610132576020366003190112610132576020611079600435611402565b604051908152f35b34610132575f36600319011261013257602060405160058152f35b34610132575f366003190112610132576002546040516001600160a01b039091168152602090f35b34610132575f366003190112610132575f546040516001600160a01b039091168152602090f35b3461013257604036600319011261013257611104611360565b5f546001600160a01b039081169116808214908190811561134b575b501561131957602492501561124357602090604051928380926370a0823160e01b82523060048301525afa8015610ee9575f90611210575b6001546040516370a0823160e01b81523060048201529250602090839060249082906001600160a01b03165afa918215610ee9575f926111dc575b50905b6111a461035e6024356113ac565b6103e88302928084046103e814901517156111c857610389611079926020946113d7565b634e487b7160e01b5f52601160045260245ffd5b9091506020813d602011611208575b816111f860209383611376565b8101031261013257519082611193565b3d91506111eb565b506020813d60201161123b575b8161122a60209383611376565b810103126101325760249051611158565b3d915061121d565b6001546040516370a0823160e01b81523060048201529260209184919082906001600160a01b03165afa918215610ee9575f926112e4575b50906020602492604051938480926370a0823160e01b82523060048301525afa918215610ee9575f926112b0575b5090611196565b9091506020813d6020116112dc575b816112cc60209383611376565b81010312610132575190826112a9565b3d91506112bf565b91506020823d602011611311575b816112ff60209383611376565b8101031261013257905190602061127b565b3d91506112f2565b62461bcd60e51b835260206004840152600d60248401526c24b73b30b634b2103a37b5b2b760991b6044840152606483fd5b6001546001600160a01b031614905084611120565b600435906001600160a01b038216820361013257565b90601f8019910116810190811067ffffffffffffffff82111761139857604052565b634e487b7160e01b5f52604160045260245ffd5b906103e38202918083046103e314901517156111c857565b818102929181159184041417156111c857565b919082018092116111c857565b81156113ee570490565b634e487b7160e01b5f52601260045260245ffd5b5f546040516370a0823160e01b815230600482015290602090829060249082906001600160a01b03165afa908115610ee9575f916114d3575b506001546040516370a0823160e01b815230600482015290602090829060249082906001600160a01b03165afa908115610ee9575f916114a1575b5081158015611499575b61149457610a9390611491936113c4565b90565b505090565b508015611480565b90506020813d6020116114cb575b816114bc60209383611376565b8101031261013257515f611476565b3d91506114af565b90506020813d6020116114fd575b816114ee60209383611376565b8101031261013257515f61143b565b3d91506114e1565b90816020910312610132575180151581036101325790565b1561152457565b60405162461bcd60e51b8152602060048201526016602482015275151c985b9cd9995c881d1bdad95b904819985a5b195960521b6044820152606490fd5b1561156957565b60405162461bcd60e51b8152602060048201526016602482015275151c985b9cd9995c881d1bdad95b908819985a5b195960521b6044820152606490fdfea2646970667358221220760ba203440a28239bc50d4db23e4ae6d486ec201e9ee9a95e1bf638b032783b64736f6c634300081e0033",
    "sourcePath": "/home/aks/vs_stuff/Projects/production/aksswap/src/Pool.sol",
    "compiler": {
        "name": "solc",
        "version": "0.8.30+commit.73712a01"
    },
    "functionHashes": {
        "FEE_RATE()": "2d11c58a",
        "addLiquidity(uint256,uint256)": "9cd441da",
        "getPoolReserves()": "eb022414",
        "getPoolSwapToken()": "72e81c9a",
        "getPoolTokenAddress()": "194d28a6",
        "getPoolTokenShare(address)": "c4bd680b",
        "getPoolTokenSupply()": "f3ef47a3",
        "liquidityQuote(uint256)": "4b84e8aa",
        "lpToken()": "5fcbd285",
        "pullLiquidityAsLp()": "5e9c1667",
        "quoteSwap(address,uint256)": "07fa901a",
        "swap(address,address,uint256)": "df791e50",
        "tokenA()": "0fc63d10",
        "tokenB()": "5f64b55b"
    },
    "gasEstimates": {
        "creation": {
            "codeDepositCost": "1119400",
            "executionCost": "infinite",
            "totalCost": "infinite"
        },
        "external": {
            "FEE_RATE()": "224",
            "addLiquidity(uint256,uint256)": "infinite",
            "getPoolReserves()": "infinite",
            "getPoolSwapToken()": "4588",
            "getPoolTokenAddress()": "2329",
            "getPoolTokenShare(address)": "infinite",
            "getPoolTokenSupply()": "infinite",
            "liquidityQuote(uint256)": "infinite",
            "lpToken()": "2442",
            "pullLiquidityAsLp()": "infinite",
            "quoteSwap(address,uint256)": "infinite",
            "swap(address,address,uint256)": "infinite",
            "tokenA()": "2306",
            "tokenB()": "2420"
        }
    }
}